{
  "_format": "hh-sol-artifact-1",
  "contractName": "ArthaSetuLoans",
  "sourceName": "contracts/ArthaSetuLoans.sol",
  "abi": [
    {
      "inputs": [
        {
          "internalType": "address",
          "name": "_paymentToken",
          "type": "address"
        }
      ],
      "stateMutability": "nonpayable",
      "type": "constructor"
    },
    {
      "inputs": [
        {
          "internalType": "address",
          "name": "token",
          "type": "address"
        }
      ],
      "name": "SafeERC20FailedOperation",
      "type": "error"
    },
    {
      "anonymous": false,
      "inputs": [
        {
          "indexed": true,
          "internalType": "bytes32",
          "name": "id",
          "type": "bytes32"
        },
        {
          "indexed": true,
          "internalType": "address",
          "name": "guarantor",
          "type": "address"
        }
      ],
      "name": "GuarantorApproved",
      "type": "event"
    },
    {
      "anonymous": false,
      "inputs": [
        {
          "indexed": true,
          "internalType": "bytes32",
          "name": "id",
          "type": "bytes32"
        },
        {
          "indexed": true,
          "internalType": "address",
          "name": "borrower",
          "type": "address"
        },
        {
          "indexed": false,
          "internalType": "uint256",
          "name": "amount",
          "type": "uint256"
        }
      ],
      "name": "LoanCreated",
      "type": "event"
    },
    {
      "anonymous": false,
      "inputs": [
        {
          "indexed": true,
          "internalType": "bytes32",
          "name": "id",
          "type": "bytes32"
        },
        {
          "indexed": true,
          "internalType": "address",
          "name": "borrower",
          "type": "address"
        },
        {
          "indexed": false,
          "internalType": "uint256",
          "name": "amount",
          "type": "uint256"
        }
      ],
      "name": "LoanDisbursed",
      "type": "event"
    },
    {
      "anonymous": false,
      "inputs": [
        {
          "indexed": true,
          "internalType": "bytes32",
          "name": "id",
          "type": "bytes32"
        },
        {
          "indexed": true,
          "internalType": "address",
          "name": "lender",
          "type": "address"
        },
        {
          "indexed": false,
          "internalType": "uint256",
          "name": "interestRateBps",
          "type": "uint256"
        }
      ],
      "name": "LoanFunded",
      "type": "event"
    },
    {
      "anonymous": false,
      "inputs": [
        {
          "indexed": true,
          "internalType": "bytes32",
          "name": "id",
          "type": "bytes32"
        },
        {
          "indexed": true,
          "internalType": "address",
          "name": "borrower",
          "type": "address"
        },
        {
          "indexed": false,
          "internalType": "uint256",
          "name": "amount",
          "type": "uint256"
        }
      ],
      "name": "LoanRepaid",
      "type": "event"
    },
    {
      "inputs": [
        {
          "internalType": "bytes32",
          "name": "_id",
          "type": "bytes32"
        }
      ],
      "name": "approveGuarantor",
      "outputs": [],
      "stateMutability": "nonpayable",
      "type": "function"
    },
    {
      "inputs": [
        {
          "internalType": "bytes32",
          "name": "_id",
          "type": "bytes32"
        }
      ],
      "name": "calculateAccruedInterest",
      "outputs": [
        {
          "internalType": "uint256",
          "name": "",
          "type": "uint256"
        }
      ],
      "stateMutability": "view",
      "type": "function"
    },
    {
      "inputs": [
        {
          "internalType": "bytes32",
          "name": "_id",
          "type": "bytes32"
        },
        {
          "internalType": "uint256",
          "name": "_amount",
          "type": "uint256"
        }
      ],
      "name": "createLoan",
      "outputs": [],
      "stateMutability": "nonpayable",
      "type": "function"
    },
    {
      "inputs": [
        {
          "internalType": "bytes32",
          "name": "_id",
          "type": "bytes32"
        },
        {
          "internalType": "uint256",
          "name": "_interestRateBps",
          "type": "uint256"
        }
      ],
      "name": "fundAndDisburse",
      "outputs": [],
      "stateMutability": "nonpayable",
      "type": "function"
    },
    {
      "inputs": [
        {
          "internalType": "bytes32",
          "name": "",
          "type": "bytes32"
        },
        {
          "internalType": "address",
          "name": "",
          "type": "address"
        }
      ],
      "name": "guarantorApprovals",
      "outputs": [
        {
          "internalType": "bool",
          "name": "",
          "type": "bool"
        }
      ],
      "stateMutability": "view",
      "type": "function"
    },
    {
      "inputs": [
        {
          "internalType": "bytes32",
          "name": "",
          "type": "bytes32"
        }
      ],
      "name": "loans",
      "outputs": [
        {
          "internalType": "bytes32",
          "name": "id",
          "type": "bytes32"
        },
        {
          "internalType": "address",
          "name": "borrower",
          "type": "address"
        },
        {
          "internalType": "address",
          "name": "lender",
          "type": "address"
        },
        {
          "internalType": "uint256",
          "name": "principalAmount",
          "type": "uint256"
        },
        {
          "internalType": "uint256",
          "name": "interestRateBps",
          "type": "uint256"
        },
        {
          "internalType": "uint256",
          "name": "outstandingPrincipal",
          "type": "uint256"
        },
        {
          "internalType": "uint256",
          "name": "disbursedAt",
          "type": "uint256"
        },
        {
          "internalType": "uint256",
          "name": "lastPaymentAt",
          "type": "uint256"
        },
        {
          "internalType": "enum ArthaSetuLoans.LoanStatus",
          "name": "status",
          "type": "uint8"
        }
      ],
      "stateMutability": "view",
      "type": "function"
    },
    {
      "inputs": [],
      "name": "paymentToken",
      "outputs": [
        {
          "internalType": "contract IERC20",
          "name": "",
          "type": "address"
        }
      ],
      "stateMutability": "view",
      "type": "function"
    },
    {
      "inputs": [
        {
          "internalType": "bytes32",
          "name": "_id",
          "type": "bytes32"
        },
        {
          "internalType": "uint256",
          "name": "_amount",
          "type": "uint256"
        }
      ],
      "name": "repayLoan",
      "outputs": [],
      "stateMutability": "nonpayable",
      "type": "function"
    }
  ],
  "bytecode": "0x60a06040523480156200001157600080fd5b5060405162001622380380620016228339818101604052810190620000379190620000dc565b8073ffffffffffffffffffffffffffffffffffffffff1660808173ffffffffffffffffffffffffffffffffffffffff1681525050506200010e565b600080fd5b600073ffffffffffffffffffffffffffffffffffffffff82169050919050565b6000620000a48262000077565b9050919050565b620000b68162000097565b8114620000c257600080fd5b50565b600081519050620000d681620000ab565b92915050565b600060208284031215620000f557620000f462000072565b5b60006200010584828501620000c5565b91505092915050565b6080516114ea620001386000396000818161037b015281816104470152610a2101526114ea6000f3fe608060405234801561001057600080fd5b50600436106100885760003560e01c80638e2c70611161005b5780638e2c706114610127578063c49a94d214610143578063c4a908151461015f578063dce73a911461019757610088565b806327c2f17c1461008d5780632c7d6b56146100a95780633013ce29146100d95780633068d925146100f7575b600080fd5b6100a760048036038101906100a29190610e60565b6101b3565b005b6100c360048036038101906100be9190610efe565b610416565b6040516100d09190610f59565b60405180910390f35b6100e1610445565b6040516100ee9190610fd3565b60405180910390f35b610111600480360381019061010c9190610fee565b610469565b60405161011e919061102a565b60405180910390f35b610141600480360381019061013c9190610e60565b610538565b005b61015d60048036038101906101589190610e60565b610805565b005b61017960048036038101906101749190610fee565b610b31565b60405161018e999897969594939291906110da565b60405180910390f35b6101b160048036038101906101ac9190610fee565b610bcc565b005b60008060008481526020019081526020016000209050600460068111156101dd576101dc611063565b5b8160080160009054906101000a900460ff16600681111561020157610200611063565b5b14610241576040517f08c379a0000000000000000000000000000000000000000000000000000000008152600401610238906111c4565b60405180910390fd5b60008211610284576040517f08c379a000000000000000000000000000000000000000000000000000000000815260040161027b90611230565b60405180910390fd5b600061028f84610469565b905060008390508181106102b45781816102a9919061127f565b9050600091506102c7565b80826102c0919061127f565b9150600090505b60008111156103465782600501548110610329578260050154816102eb919061127f565b90506000836005018190555060058360080160006101000a81548160ff0219169083600681111561031f5761031e611063565b5b0217905550610345565b8083600501600082825461033d919061127f565b925050819055505b5b4283600701819055506103c0338460020160009054906101000a900473ffffffffffffffffffffffffffffffffffffffff16867f000000000000000000000000000000000000000000000000000000000000000073ffffffffffffffffffffffffffffffffffffffff16610d1f909392919063ffffffff16565b3373ffffffffffffffffffffffffffffffffffffffff16857fa4513463869a9bb2a04ca9d0887721a32388ebe4ade85f8743261b3214b6d65b86604051610407919061102a565b60405180910390a35050505050565b60016020528160005260406000206020528060005260406000206000915091509054906101000a900460ff1681565b7f000000000000000000000000000000000000000000000000000000000000000081565b60008060008084815260200190815260200160002090506004600681111561049457610493611063565b5b8160080160009054906101000a900460ff1660068111156104b8576104b7611063565b5b146104c7576000915050610533565b60008160070154426104d9919061127f565b9050600062015180826104ec91906112e2565b90506000612710846004015485600501546105079190611313565b61051191906112e2565b905061016d82826105229190611313565b61052c91906112e2565b9450505050505b919050565b600073ffffffffffffffffffffffffffffffffffffffff1660008084815260200190815260200160002060010160009054906101000a900473ffffffffffffffffffffffffffffffffffffffff1673ffffffffffffffffffffffffffffffffffffffff16146105dc576040517f08c379a00000000000000000000000000000000000000000000000000000000081526004016105d3906113a1565b60405180910390fd5b6000811161061f576040517f08c379a000000000000000000000000000000000000000000000000000000000815260040161061690611230565b60405180910390fd5b6040518061012001604052808381526020013373ffffffffffffffffffffffffffffffffffffffff168152602001600073ffffffffffffffffffffffffffffffffffffffff1681526020018281526020016000815260200182815260200160008152602001600081526020016000600681111561069f5761069e611063565b5b8152506000808481526020019081526020016000206000820151816000015560208201518160010160006101000a81548173ffffffffffffffffffffffffffffffffffffffff021916908373ffffffffffffffffffffffffffffffffffffffff16021790555060408201518160020160006101000a81548173ffffffffffffffffffffffffffffffffffffffff021916908373ffffffffffffffffffffffffffffffffffffffff160217905550606082015181600301556080820151816004015560a0820151816005015560c0820151816006015560e082015181600701556101008201518160080160006101000a81548160ff021916908360068111156107aa576107a9611063565b5b02179055509050503373ffffffffffffffffffffffffffffffffffffffff16827f1a0dfea61a24fff93563d54e809e3f4d687fac3792d06b3a66863661af605fcf836040516107f9919061102a565b60405180910390a35050565b60008060008481526020019081526020016000209050600073ffffffffffffffffffffffffffffffffffffffff168160010160009054906101000a900473ffffffffffffffffffffffffffffffffffffffff1673ffffffffffffffffffffffffffffffffffffffff16036108ae576040517f08c379a00000000000000000000000000000000000000000000000000000000081526004016108a59061140d565b60405180910390fd5b600060068111156108c2576108c1611063565b5b8160080160009054906101000a900460ff1660068111156108e6576108e5611063565b5b148061092757506002600681111561090157610900611063565b5b8160080160009054906101000a900460ff16600681111561092557610924611063565b5b145b610966576040517f08c379a000000000000000000000000000000000000000000000000000000000815260040161095d90611479565b60405180910390fd5b338160020160006101000a81548173ffffffffffffffffffffffffffffffffffffffff021916908373ffffffffffffffffffffffffffffffffffffffff16021790555081816004018190555060048160080160006101000a81548160ff021916908360068111156109da576109d9611063565b5b0217905550428160060181905550428160070181905550610a66338260010160009054906101000a900473ffffffffffffffffffffffffffffffffffffffff1683600301547f000000000000000000000000000000000000000000000000000000000000000073ffffffffffffffffffffffffffffffffffffffff16610d1f909392919063ffffffff16565b3373ffffffffffffffffffffffffffffffffffffffff16837fc9ec7789962b9f329b37b7c2abcaa16a718d7203dc72064e1fde1b34a552b05a84604051610aad919061102a565b60405180910390a38060010160009054906101000a900473ffffffffffffffffffffffffffffffffffffffff1673ffffffffffffffffffffffffffffffffffffffff16837fc3f168a79fbed0e31a418b80dda6d79c4c74347d4f0aeb40fdf182b2aa09114e8360030154604051610b24919061102a565b60405180910390a3505050565b60006020528060005260406000206000915090508060000154908060010160009054906101000a900473ffffffffffffffffffffffffffffffffffffffff16908060020160009054906101000a900473ffffffffffffffffffffffffffffffffffffffff16908060030154908060040154908060050154908060060154908060070154908060080160009054906101000a900460ff16905089565b600073ffffffffffffffffffffffffffffffffffffffff1660008083815260200190815260200160002060010160009054906101000a900473ffffffffffffffffffffffffffffffffffffffff1673ffffffffffffffffffffffffffffffffffffffff1603610c70576040517f08c379a0000000000000000000000000000000000000000000000000000000008152600401610c679061140d565b60405180910390fd5b600180600083815260200190815260200160002060003373ffffffffffffffffffffffffffffffffffffffff1673ffffffffffffffffffffffffffffffffffffffff16815260200190815260200160002060006101000a81548160ff0219169083151502179055503373ffffffffffffffffffffffffffffffffffffffff16817f69dadfe062970a3c9cceb90cc5311422c9c24bd90943c46c02c1c1dbf79ff58360405160405180910390a350565b610d2d848484846001610d74565b610d6e57836040517f5274afe7000000000000000000000000000000000000000000000000000000008152600401610d659190611499565b60405180910390fd5b50505050565b6000806323b872dd60e01b90506040518160005260001960601c871660045260001960601c8616602452846044526020600060646000808c5af192506001600051148316610ddb578383151615610dce573d6000823e3d81fd5b6000883b113d1516831692505b806040526000606052505095945050505050565b600080fd5b6000819050919050565b610e0781610df4565b8114610e1257600080fd5b50565b600081359050610e2481610dfe565b92915050565b6000819050919050565b610e3d81610e2a565b8114610e4857600080fd5b50565b600081359050610e5a81610e34565b92915050565b60008060408385031215610e7757610e76610def565b5b6000610e8585828601610e15565b9250506020610e9685828601610e4b565b9150509250929050565b600073ffffffffffffffffffffffffffffffffffffffff82169050919050565b6000610ecb82610ea0565b9050919050565b610edb81610ec0565b8114610ee657600080fd5b50565b600081359050610ef881610ed2565b92915050565b60008060408385031215610f1557610f14610def565b5b6000610f2385828601610e15565b9250506020610f3485828601610ee9565b9150509250929050565b60008115159050919050565b610f5381610f3e565b82525050565b6000602082019050610f6e6000830184610f4a565b92915050565b6000819050919050565b6000610f99610f94610f8f84610ea0565b610f74565b610ea0565b9050919050565b6000610fab82610f7e565b9050919050565b6000610fbd82610fa0565b9050919050565b610fcd81610fb2565b82525050565b6000602082019050610fe86000830184610fc4565b92915050565b60006020828403121561100457611003610def565b5b600061101284828501610e15565b91505092915050565b61102481610e2a565b82525050565b600060208201905061103f600083018461101b565b92915050565b61104e81610df4565b82525050565b61105d81610ec0565b82525050565b7f4e487b7100000000000000000000000000000000000000000000000000000000600052602160045260246000fd5b600781106110a3576110a2611063565b5b50565b60008190506110b482611092565b919050565b60006110c4826110a6565b9050919050565b6110d4816110b9565b82525050565b6000610120820190506110f0600083018c611045565b6110fd602083018b611054565b61110a604083018a611054565b611117606083018961101b565b611124608083018861101b565b61113160a083018761101b565b61113e60c083018661101b565b61114b60e083018561101b565b6111596101008301846110cb565b9a9950505050505050505050565b600082825260208201905092915050565b7f4e6f742064697362757273656400000000000000000000000000000000000000600082015250565b60006111ae600d83611167565b91506111b982611178565b602082019050919050565b600060208201905081810360008301526111dd816111a1565b9050919050565b7f416d6f756e74206d757374206265203e20300000000000000000000000000000600082015250565b600061121a601283611167565b9150611225826111e4565b602082019050919050565b600060208201905081810360008301526112498161120d565b9050919050565b7f4e487b7100000000000000000000000000000000000000000000000000000000600052601160045260246000fd5b600061128a82610e2a565b915061129583610e2a565b92508282039050818111156112ad576112ac611250565b5b92915050565b7f4e487b7100000000000000000000000000000000000000000000000000000000600052601260045260246000fd5b60006112ed82610e2a565b91506112f883610e2a565b925082611308576113076112b3565b5b828204905092915050565b600061131e82610e2a565b915061132983610e2a565b925082820261133781610e2a565b9150828204841483151761134e5761134d611250565b5b5092915050565b7f4c6f616e20616c72656164792065786973747300000000000000000000000000600082015250565b600061138b601383611167565b915061139682611355565b602082019050919050565b600060208201905081810360008301526113ba8161137e565b9050919050565b7f4c6f616e206e6f7420666f756e64000000000000000000000000000000000000600082015250565b60006113f7600e83611167565b9150611402826113c1565b602082019050919050565b60006020820190508181036000830152611426816113ea565b9050919050565b7f496e76616c696420737461746500000000000000000000000000000000000000600082015250565b6000611463600d83611167565b915061146e8261142d565b602082019050919050565b6000602082019050818103600083015261149281611456565b9050919050565b60006020820190506114ae6000830184611054565b9291505056fea26469706673582212207982809cef19bf1919b00aff12b826dd247331cd002dbd71b0c545a6d537fb2664736f6c63430008180033",
  "linkReferences": {},
  "deployedLinkReferences": {}
}